:020000040000fa
:10000000f07f00203d080000f70b00003d0c0000d1
:1000100000000000000000000000000000000000e0
:100020000000000000000000000000007f0b000046
:1000300000000000000000007f0b0000050a000027
:100040007f0b00007f0b00007f0b00007f0b000088
:100050007f0b00007f0b00007f0b00007f0b000078
:100060007f0b00007f0b00007f0b00007f0b000068
:100070007f0b00007f0b00007f0b00007f0b000058
:100080007f0b00007f0b00002d0a00007f0b00009b
:100090007f0b00007f0b00007f0b00007f0b000038
:1000a0007f0b00007f0b00007f0b00007f0b000028
:020000040000fa
:1000b000f8b5c046f8bc08bc9e4670471d08000055
:1000c000f8b5c046f8bc08bc9e467047f50700006e
:020000040000fa
:1000d000f0b5de4657464e464546e0b583b0844609
:1000e00091461a00002936d0002834d0614b5b6855
:1000f00007201840019042d14b46002b00d19ae0d6
:100100005c4b1b7e5b0705d55a4b04259c6a1c7e05
:100110002c42fbd1574b5c8b04252c435c831c7e0b
:1001200080252c431c7600239a468a4201d9531a13
:100130009a46019b002b04d05208490853465b089d
:100140009a464c4d01242b7e2342fcd00023984636
:10015000484c04272ae00020002a61d04b46002b9f
:1001600065d0444b5b6807301840019000d175e0c2
:10017000002900d078e0d30705d5002050e0cb0758
:1001800057d4002af7d163465c1ea3415b42194055
:10019000b2e75d006646ad5bed05ed0da56201338e
:1001a000002a10d10126257e3542fcd08b4224d076
:1001b00001980028edd16546ed5ca5620133efe7bb
:1001c0002d4da56221e0257e3d42fcd0a56a9045db
:1001d000ecd20198002806d14e4640463554012005
:1001e0008346d844e2e740464600ed05ed0d48461b
:1001f000355201208346d844d8e75546002d09d012
:1002000001980028dcd1ff25a56201256d42ab468f
:10021000da44c5e7174902220b7e1342fcd00120c5
:1002200003b03cbc90469946a246ab46f0bd0020c8
:10023000f6e70020f4e70f4b1b7e00225b0700d59a
:1002400062e70c4b5a8b042422435a831a7e802483
:1002500022431a76002200239a466ae76346002b5f
:1002600000d049e701994be7cb0700d483e7002092
:0c027000d6e7c046000c0042ff01000071
:020000040000fa
:10027c0010b500f034fc0c21102000f0aefc364c14
:10028c00002323708121042000f0a7fc012000f042
:10029c0039fb6321142000f0a0fc0021152000f094
:1002ac009cfc0321162000f098fc0321172000f081
:1002bc0094fc0b21182000f090fc21782139c9b254
:1002cc00192000f08afc2178e031ff31090a1a204c
:1002dc0000f083fc1f211b2000f07ffc00211c2060
:1002ec0000f07bfc16211d2000f077fc00211e2065
:1002fc0000f073fc01211f2000f06ffc0021302066
:10030c0000f06bfc0021312000f067fc1f21342031
:10031c0000f063fc0321352000f05ffc21783220d3
:10032c0000f05bfc2178332000f057fc2178213958
:10033c00c9b2362000f051fc2178e031ff31090ab6
:10034c00372000f04afc80218e2000f046fcfa2079
:0c035c00400000f0d7fa10bd880000201f
:020000040000fa
:10036800f8b5ce46474680b507000e0015001c00bc
:1003780008ab1b88984609ab1b789946912000f07a
:1003880065fbf8b200f076fb922000f05ffb3f12ad
:10039800f8b200f06ffb932000f058fbf0b200f0c9
:1003a80069fb942000f052fb3612f0b200f062fbb9
:1003b800952000f04bfbe8b200f05cfb962000f0c3
:1003c80045fb2d12e8b200f055fb972000f03efbec
:1003d800e0b200f04ffb982000f038fb2412e0b2a6
:1003e80000f048fb632000f031fb4346d80a00f0d8
:1003f80041fb642000f02afb43465805800e00f0bc
:1004080039fb652000f022fb1f204346184000f00e
:1004180031fb902000f01afb4b46002b0ad0b0208d
:1004280000f028fb8021902000f0bcfb0cbc90461b
:0c0438009946f8bd902000f01dfbf3e792
:020000040000fa
:100444001c4b00229a619a8c80218a439a841a0058
:100454001023d1680b42fcd0174b1b689b0e3f2b1b
:1004640025d09b02802292001343124a93621023e8
:10047400d1680b42fcd00f4b02229a841a0010233d
:10048400d1680b42fcd00d4b0d4a5a601a005378c8
:100494005bb2002bfbdb094b0a4a5a800a4a5a809a
:1004a4000a4b0b4a1a62034b00221a627047203b24
:1004b400d7e7c0460008004024608000000c0040dc
:1004c40000070100154000001b400000000400402c
:0404d4000808010013
:020000040000fa
:1004d80070b504000d1e00d11e4d1f4a136802217d
:1004e8008b431360d369002bfcd1002c30d02168da
:1004f8006b080020994222d84900280000f030f803
:10050800154a136815490b4013601168a36865689c
:100518002b430b4313600138ff2800d9ff20c0b2da
:100528000d4b18735a6807218a435a605a68e16864
:100538000a435a601a00d369002bfcd10120064aed
:10054800136802210b431360d369002bfcd170bde3
:100558000020f4e7006cdc02000c0042ffffffcf34
:020000040000fa
:10056800002934d00123002210b488422cd301245e
:100578002407a14204d2814202d209011b01f8e7f3
:10058800e400a14204d2814202d249005b00f8e7ac
:10059800884201d3401a1a434c08a04202d3001bd8
:1005a8005c0822438c08a04202d3001b9c0822430b
:1005b800cc08a04202d3001bdc082243002803d049
:1005c8001b0901d00909e3e7101c10bc704701b5ed
:1005d800002000f02dfb02bd0029f8d003b5fff77d
:0c05e800c1ff0ebc4243891a1847c046f0
:020000040000fa
:1005f40050000020300000000000000089000020ae
:10060400010000000100000032000000880000200a
:100614000100000000000000800000200400000031
:100624000000000000000020500000000000000056
:10063400840000200400000000000000000000000e
:1006440000000000666666666666666666666666de
:020000040000fa
:1006540000230e4a10b513600d4a13600d4a13604f
:100664000d4a13600d4a13600d4a5362136101333e
:10067400936000f0e2fa00f0e0fa0a4c0a4b9c4264
:1006840000d310bd08cc9847f8e7c046840000208a
:100694000c000020080000200000002004000020be
:0c06a40010000020bc000000c00000009e
:020000040000fa
:1006b00030b585b0104c8025ed009423e5506420c2
:1006c00000f026f99823e550642000f021f90b4b47
:1006d00000930023019302930393094c2100684681
:1006e000fff7fafefff7cafd064b009321006846ac
:1006f000fff7f2fe05b030bd0044004148e80100bc
:08070000006cdc0280841e0085
:020000040000fa
:10070800114bc02292021a601a6150220321995497
:100718004e3a4e315a545039522019540130195416
:1007280037315a5401313138585408495e3019501c
:1007380010301950ca215a5414315a5400222939f8
:100748005a540a315a54704700440041000400408a
:020000040000fa
:1007580010b5114b1b78282b0fd00f4b1b78142b7f
:1007680014d00d4b1b78002b02d10b4b32221a7080
:10077800094a1378013b137010bd084a743380216d
:10078800c905d1501f2000f0bdf9e6e7f8200002a6
:1007980000f0b8f9e5e7c0468900002000440041b0
:020000040000fa
:1007a80010b50e4b0e4a934207d30e480168002934
:1007b80007d14368002b04d110bd00211970013303
:1007c800f1e704008368084a9bb20c349b009b58ed
:1007d80042682000984780002018e7e700000020c2
:0c07e80000000020f4050000c00b000021
:020000040000fa
:1007f40010b5064c2378002b07d1054b002b02d0f3
:10080400044800e000bf0123237010bd5000002005
:100814000000000000000000044b10b5002b03d0c2
:100824000349044800e000bf10bdc04600000000ba
:08083400540000200000000048
:020000040000fa
:10083c0010b50a4b98470a4b9847fff7afff094b87
:10084c00ff229343084a9360084b9847084b9847fc
:10085c00084b984700f010f8fee7c0460b0b000061
:10086c000b0b00000000000000ed00e0550600003e
:08087c000b0b00000b0b000048
:020000040000fa
:1008840010b5002000f0a6f800210d4800f0bef9d4
:1008940000f080f9fff70aff012000f054f901206d
:1008a40000f05ef90a21012000f00cf9c82000f0e4
:1008b400b9f9044800f028f900f060f9fee7c046f1
:0808c40059070000ffff0000ce
:020000040000fa
:1008cc000d4b01221a801a00d37b5bb2002bfbdb91
:1008dc00094bcc22d2001a80084a1a833b229a7305
:1008ec00074a0021116001225a731a00d37b5bb2b4
:1008fc00002bfbdb7047c046002c00424e12000060
:04090c00780000204f
:020000040000fa
:1009100070b50d4b5e681b68db0714d50b4b584355
:10092000094b9b6800280ed00021074d06e0741c7f
:10093000a41ae318c9181300884204d9aa689a4275
:10094000f5d89b1af6e770bd10e000e080bb000010
:020000040000fa
:1009500030b583b001a84023037000234370074cd7
:100960008025ad02656102336a460221fff7b0fbc4
:10097000a5616b46587803b030bdc04600440041c5
:020000040000fa
:10098000bff35f8f62b6074bc42080001a58064938
:100990001140c02212040a431a508022d2021a6067
:0c09a0007047c04600e100e0ffff00ffd0
:020000040000fa
:1009ac00084b802292025a601a00d369002bfcd1aa
:1009bc00044b0b221a73044a1a601a00d369002bd9
:0c09cc00fcd17047000c00420e0001003e
:020000040000fa
:1009d80010b5094b06225a60fff792fefff72efd6d
:1009e80000f006f9fff7deff00f058f8fff76aff9e
:0c09f800fff7c2ff10bdc04600400041e8
:020000040000fa
:100a040010b5074b5868074a12689a6801329a6011
:100a14001b68002b02d0024b1b68984710bdc046d0
:080a24006c00002010e000e06e
:020000040000fa
:100a2c0010b5074b987bc0b23b229a73054b1b68e1
:100a3c00002b03d0034b59681b68984710bdc04668
:080a4c00002c0042780000209c
:020000040000fa
:100a540030b583b0074c8025ad02656101ab8022bf
:100a64001a7058700221180000f0caf8a56103b08a
:080a740030bdc0460044004102
:020000040000fa
:100a7c0030b583b0074c8025ad02656101ab002217
:100a8c001a7058700221180000f0b6f8a56103b076
:080a9c0030bdc04600440041da
:020000040000fa
:100aa400054a0023136093600449516006211160d4
:100ab400034a93601360704710e000e0ff76010082
:040ac4006c000020a2
:020000040000fa
:100ac80010b5002807d00f231940713319438a2025
:100ad80000f085f810bd0f2211408a2000f07ff841
:020ae800f8e72d
:020000040000fa
:100aea0010b50b21882000f079f80120fff70bffe1
:100afa000221892000f072f80120fff704ff10bddf
:020000040000fa
:020b0a00704732
:020000040000fa
:100b0c0000b583b0e023012201920090ff33034a29
:100b1c0000210020fff722fc03b000bd1f030000e2
:020000040000fa
:100b2c00002310b5934206d103201840421e904179
:0e0b3c009b08c01810bdc45ccc540133f2e716
:020000040000fa
:100b4a0010b5002804d08021012000f047f810bd1c
:0a0b5a000021012000f042f8f9e745
:020000040000fa
:100b640010b5002804d00121c72000f03af810bdc8
:0a0b74000021c72000f035f8f9e772
:020000040000fa
:020b7e00fee790
:020000040000fa
:100b8000044a138802210b431380d37b5bb2002bf2
:080b9000fbdb7047002c004262
:020000040000fa
:100b9800034b00229a601a6801210a431a607047c1
:040ba80010e000e079
:020000040000fa
:100bac0070b505000c00280000f032f80442fad1b0
:040bbc00012070bde7
:020000040000fa
:100bc000d50b00002d0b0000350c0000350c00008b
:040bd000350c0000e0
:020000040000fa
:100bd4008a18914201d10020704700230b70013123
:020be400f7e731
:020000040000fa
:100be60010b50c00fff733ff2000fff744ff10bde0
:020000040000fa
:020bf600fee718
:020000040000fa
:0c0bf800014b82225a607047004000410f
:020000040000fa
:0c0c040010b500230022fff761fa10bdbc
:020000040000fa
:0c0c1000014b186059607047780000200c
:020000040000fa
:0c0c1c0010b5fff719fffff795fe10bda3
:020000040000fa
:0c0c280010b501008b20fff7daff10bdb3
:020000040000fa
:040c340000207047e5
:020000040000fa
:040c38007047c046fb
:020000040000fa
:020c3c00fee7d1
:020000040000fa
:020c3e007047fd
:020000040000fa
:0200000400807a
:0440000077c700d8a6
:020000040000fa
:0200000400807a
:044004005c00ffff5e
:00000001FF
