:020000040000fa
:10000000f07f00206d070000510a0000530a000035
:1000100000000000000000000000000000000000e0
:100020000000000000000000000000004f0a000077
:1000300000000000000000004f0a00004f0a00000e
:100040004f0a00004f0a00004f0a00004f0a00004c
:100050004f0a00004f0a00004f0a00004f0a00003c
:100060004f0a00004f0a00004f0a00004f0a00002c
:10007000350600004f0a00004f0a00004f0a00003a
:100080004f0a00004f0a0000c90900004f0a000093
:100090004f0a00004f0a00004f0a00004f0a0000fc
:1000a0004f0a00004f0a00004f0a00004f0a0000ec
:020000040000fa
:1000b000f8b5c046f8bc08bc9e4670474d07000026
:1000c000f8b5c046f8bc08bc9e467047250700003e
:020000040000fa
:1000d000f0b5de4657464e464546e0b583b080460d
:1000e0009246002939d0002837d0674a5268072045
:1000f0001040019045d15246002a00d1a5e0624847
:10010000007e420705d560480425826a027e2a42a5
:10011000fbd15d48448b04252c434483047e802519
:100120002c430476002291468b4201d95a1a9146fb
:10013000019a002a04d05b0849084a4652089146b1
:10014000514d01242a7e2242fcd0002000274e4c33
:100150000426012500908b462fe00020002b69d05b
:100160005246002a6dd0484a52680730104001902c
:1001700000d17de0002900d080e0da0705d500201d
:1001800058e0ca075fd4002bf7d14046441ea04177
:1001900040420140afe77a004046125ad205d20de4
:1001a000a262013712e0394aa26238e0009859464b
:1001b000227e2a42fcd000908b465f4527d0019ad0
:1001c000002ae8d14246d25da2620137002bedd071
:1001d00000985946227e3242fcd000908b46a26a9b
:1001e00001009842e9d20198002804d150464254b7
:1001f00001310091e1e7009948008446d205d20d13
:10020000504661460a52009901310091d5e74a46ad
:10021000002a09d0019a002ac5d1ff32a262012228
:1002200052429446e144d1e7174902320b7e134211
:10023000fcd0012003b03cbc90469946a246ab4698
:10024000f0bd0020f6e70020f4e70f4b187e0023f6
:10025000420700d557e70c4b588b042420435883a2
:10026000187e8024204318760023002291465fe701
:100270004246002a00d03ee7019940e7ca0700d471
:100280007be70020d6e7c04600080042ff010000df
:020000040000fa
:100290001d4b00229a619a8c80218a439a841a000d
:1002a0001023d1680b42fcd0184b1b689b0e3f2bd0
:1002b00027d09b02802292001343134a936210239b
:1002c000d1680b42fcd0104b02229a841a001023f2
:1002d000d1680b42fcd00e4b0e4a5a601a0053787c
:1002e0005bb2002bfbdb0a4b0b4a5a800b4a5a804d
:1002f0000b4a5a800b4b0c4a1a62034b00221a62bb
:100300007047203bd5e7c0460008004024608000cd
:10031000000c0040000701001440000017400000de
:0c0320001b400000000400402408010005
:020000040000fa
:10032c00f8b51e4b1b7d002b37d01c4a93685168c7
:10033c001b4a127ed2071dd599421bd91849072694
:10034c00164a944617001500012409e03a68d25c5d
:10035c000a85013368680a7e22420bd0984209d97b
:10036c004a683240012af1d1624612685800825a1a
:10037c000a85eee7094a936052689a420dd8074bfa
:10038c0000221a755a60064a01211175db68002b90
:10039c0003d0024b1869db689847f8bd5000002069
:0403ac0000140042f7
:020000040000fa
:1003b000800000201c000000000000005000002011
:1003c00030000000000000009c0000200800000039
:1003d00000000000a4000020060000000000000053
:1003e000aa0000200100000000000000ab00002077
:1003f000010000000100000029000000ac00002006
:100400000400000000000000000000205000000078
:1004100000000000b0000020040000000000000008
:1004200000000000000000004444444444444444ac
:020000040000fa
:1004300070b5002830d0194b1a7d0023002a29d12d
:10044000164b1860596001321a755c68144b1b7e9c
:10045000db0716d5002c17d00023114907260125ec
:1004600007e0c25c0a8501330a7e2a420bd09c4217
:100470000ad04a683240012af3d15a00825a0a85ca
:10048000f1e7002400e01c00044b9c60044b0122b7
:100490009a750123180070bd0023fbe7500000206f
:0404a0000014004202
:020000040000fa
:1004a40010b5194a2c23d35c002b18d01300d26941
:1004b4001b6a934213d2144b986a14490a8d92b260
:1004c4001b6a4c6807212140012909d00e4989691a
:1004d400ca5401330c4a1362d2699a4205d010bd42
:1004e400094989695c006252f3e7074b00222c2119
:1004f4005a54da61054a583111755b6a002beed003
:10050400014b5b6a9847eae7500000200014004260
:020000040000fa
:100514000021f0b5174b184a934208d30027174a15
:1005240013685168002b05d1002903d1f0bd19705f
:100534000133f1e7100095680c305c18002d16d0db
:100544000b25ed1a5219a3420ad10b0003221340c2
:100554005a1e934189085918890040180200dfe7a0
:100564005d1cae5c1e702b00ede71f700133a342cf
:10057400fbd1f3e70000002000000020b0030000de
:020000040000fa
:1005840000230e4a10b513600d4a13600d4a136020
:100594000d4a13600d4a13600d4a5362136101330f
:1005a400936000f055fa00f053fa0a4c0a4b9c424f
:1005b40000d310bd08cc9847f8e7c046b00000202f
:1005c4000c0000200800002000000020040000208f
:0c05d40010000020bc000000c00000006f
:020000040000fa
:1005e000114b124a1a60d22252429a81c0229202c0
:1005f0005a601a00d369002bfcd10b4a1368022100
:100600000b431360d369002bfcd1094b00229a6184
:10061000da611a622c215a545a621a605a609a603e
:100620001a75da60da857047001400420401004050
:040630005000002056
:020000040000fa
:1006340010b5134b9b7d002b1ad0114a137edbb2ed
:10064400927d52b2002a14db0d4a137edbb2927df6
:10065400d20703d5db0701d5fff766fe084a137ef0
:10066400dbb2927d520703d55b0701d5fff718ff74
:1006740010bd5bb2002be7da00f0dcf8e4e7c0461b
:04068400001400421c
:020000040000fa
:1006880070b584b003a8842303700f4d20266e61d3
:1006980001ac7c3b22000821fff716fdae61e37830
:1006a8001b02a078c01880b2084b18806179090233
:1006b800227952185a80e1790902a27952189a804f
:1006c80000f09ef904b070bd00440041a400002071
:020000040000fa
:1006d800104b114a1a6020221a611f3a44215a54b9
:1006e80042394520195401301a5401301a540f3038
:1006f8001a5401301a545d3299542c3a01319954e4
:1007080001329a5408321f31995404321c399954d1
:0c0718007047c046004400412000004033
:020000040000fa
:1007240010b5064c2378002b07d1054b002b02d0c3
:10073400044800e000bf0123237010bd80000020a6
:100744000000000000000000044b10b5002b03d093
:100754000349044800e000bf10bdc046000000008b
:080764008400002000000000e9
:020000040000fa
:10076c0010b50a4b98470a4b984700f065f9094bae
:10077c00ff229343084a9360084b9847084b9847cd
:10078c00084b984700f004f9fee7c0464d0a0000fc
:10079c004d0a00000000000000ed00e0850500009f
:0807ac004d0a00004d0a000097
:020000040000fa
:1007b4000d4b01221a801a00d37b5bb2002bfbdbaa
:1007c400094bcc22d2001a80084a1a833b229a731e
:1007d400074a0021116001225a731a00d37b5bb2cd
:1007e400002bfbdb7047c046002c00424e12000079
:0407f4009c00002045
:020000040000fa
:1007f800bff35f8f62b60c4bc32189005a58ff20a4
:1008080082433f3802435a50802252011a60c42062
:1008180080001a5805491140c02212040a431a5090
:100828008022d2021a60704700e100e0ffff00ff5b
:020000040000fa
:1008380010b50c4b5b8b0722134000d110bd0a4c3e
:10084800e38500f07bf8074b84221a752c230022dd
:10085800e254636a002bf1d0034b986a5b6a9847ad
:0c086800ece7c0460014004250000020e5
:020000040000fa
:1008740030b583b00b4b1a6800929b886a4693800c
:1008840000f030f80123902802d0180003b030bde6
:10089400054c202565610621684600f0c1f8a56174
:0c08a4000023f2e73c0a00000044004181
:020000040000fa
:1008b00010b50b4b1b78282b0bd0094b1b78002b4a
:1008c00002d1074b29221a70054a1378013b137095
:1008d00010bd044b8022d205da61fff7d5feece7ac
:0808e000ab00002000440041c0
:020000040000fa
:1008e80030b583b001a88023037000234370837060
:1008f800064c2025656103336a460321fff7e4fbb4
:10090800a5616b46987803b030bdc04600440041ed
:020000040000fa
:10091800084b802292025a601a00d369002bfcd13e
:10092800044b17221a73044a1a601a00d369002b61
:0c093800fcd17047000800420e000100d6
:020000040000fa
:10094400094b5b8b5b070dd0074b80221a76793af3
:100954005a831b7e5b0705d5034b04211a8d1a7e2f
:0c0964000a42fbd17047c046001400425c
:020000040000fa
:1009700010b5094b06225a60fff7aefefff788fc60
:10098000fff72efe00f048f8fff7c6fffff712ff53
:0c099000fff732ff10bdc04600400041e0
:020000040000fa
:10099c0010b50020fff7e6ff00f024f80021054811
:1009ac0000f040f8fff79afffff75eff024b18705c
:0c09bc00fee7c046b1080000aa000020c1
:020000040000fa
:1009c80010b5074b987bc0b23b229a73054b1b6846
:1009d800002b03d0034b59681b68984710bdc046cd
:0809e800002c00429c000020dd
:020000040000fa
:1009f000044a138802210b431380d37b5bb2002b84
:080a0000fbdb7047002c0042f3
:020000040000fa
:100a080000b583b007216846fff70efd03b000bdaf
:020000040000fa
:0c0a1800014b82225a60704700400041f0
:020000040000fa
:0c0a240010b500230022fff751fb10bdad
:020000040000fa
:0c0a3000014b1860596070479c000020ca
:020000040000fa
:080a3c0019e21a381b04c04640
:020000040000fa
:080a440010b5fff765fd10bdc0
:020000040000fa
:020a4c007047f1
:020000040000fa
:020a4e00fee7c1
:020000040000fa
:020a5000fee7bf
:020000040000fa
:020a5200fee7bd
:020000040000fa
:020a54007047e9
:020000040000fa
:0200000400807a
:0440000077c700d8a6
:020000040000fa
:0200000400807a
:044004005c00ffff5e
:00000001FF
